:100000000C9434000C94CC020C94CC020C94CC02D2
:100010000C94CC020C94CC020C94CC020C94CC0228
:100020000C94CC020C94CC020C94CC020C94CC0218
:100030000C94CC020C94CC020C94CC020C94CC0208
:100040000C94CC020C94CC020C94CC020C94CC02F8
:100050000C94CC020C94CC020C94CC020C94CC02E8
:100060000C94CC020C94CC0211241FBECFEFD8E02C
:10007000DEBFCDBF0E9440000C948002F894FFCFF9
:100080000E9492020E948B020E947502E8E8F0E052
:100090008FEE90E0918380838FEF90E09183808357
:1000A00090938B0080938A00C0E0DFEF1FEF80E029
:1000B00090E00E944E02BC01990F880B990B0E94A0
:1000C0009E012AEC34E541E45CE30E94C5026B0129
:1000D0007C01C13039F120F0C23009F488C0E7CF8B
:1000E00020E030E040EE50E40E94BB02882344F45C
:1000F0008FEF90E09093890080938800C1E0D7CF84
:100100002AE939E949EE50E4C701B6010E94C0026C
:1001100018166CF68FEF90E090938B0080938A0016
:10012000C2E0C5CF8BB18B7F8BB982E090E00E949B
:100130004E02BC01990F880B990B0E949E012AEC7C
:1001400034E541E45CE30E94C5022DEC3CEC4CE458
:1001500050E40E94C00218168CF581E090E00E94E5
:100160004E02BC01990F880B990B0E949E012AEC4C
:1001700034E541E45CE30E94C5024B015C0120E0F0
:1001800030E040EA50E40E94C002181624F41F3FF9
:1001900011F01F5F0CC020E030E040EA50E4C501E0
:1001A000B4010E94BB02882314F411111150812F55
:1001B00090E090938B0080938A0006C08FEF90E0D0
:1001C00090938B0080938A002AE939E949EE50E444
:1001D000C701B6010E94C00218160CF068CF8FEF5D
:1001E00090E090938B0080938A00C2E060CF8BB147
:1001F00084608BB981E090E00E944E02BC01990FAF
:10020000880B990B0E949E012AEC34E541E45CE3E3
:100210000E94C5020E9499026630710524F0DD2318
:1002200011F0D15006C0653071051CF4DF3F09F0B4
:10023000DF5F8D2F90E0909389008093880020E00D
:1002400030E040EE50E4C701B6010E94BB028823B3
:100250000CF02DCF8FEF90E0909389008093880071
:04026000C1E025CF05
:100264000FC00E94A70238F00E94AE0220F095232E
:1002740011F00C94B5020C94C90211240C94A1023F
:100284000E942C0270F3959FC1F3950F50E0551F07
:10029400629FF001729FBB27F00DB11D639FAA27D7
:1002A400F00DB11DAA1F649F6627B00DA11D661F26
:1002B400829F2227B00DA11D621F739FB00DA11D47
:1002C400621F839FA00D611D221F749F3327A00D01
:1002D400611D231F849F600D211D822F762F6A2F9D
:1002E40011249F5750409AF0F1F088234AF0EE0F02
:1002F400FF1FBB1F661F771F881F91505040A9F72F
:100304009E3F510580F00C94B5020C94A1025F3F0E
:10031400E4F3983ED4F3869577956795B795F7956A
:10032400E7959F5FC1F7FE2B880F911D96958795E2
:0403340097F9089598
:10033800E89409C097FB3EF4909580957095619577
:100348007F4F8F4F9F4F9923A9F0F92F96E9BB272D
:100358009395F695879577956795B795F111F8CFA9
:10036800FAF4BB0F11F460FF1BC06F5F7F4F8F4F14
:100378009F4F16C0882311F096E911C0772321F00A
:100388009EE8872F762F05C0662371F096E8862FA2
:1003980070E060E02AF09A95660F771F881FDAF7F9
:0A03A800880F9695879597F9089540
:1003B2000E94340288F09F5798F0B92F9927B751BD
:1003C200B0F0E1F0660F771F881F991F1AF0BA95F7
:1003D200C9F714C0B13091F00E94A002B1E00895B3
:1003E2000C94A002672F782F8827B85F39F0B93FA5
:1003F200CCF3869577956795B395D9F73EF49095AA
:0E0402008095709561957F4F8F4F9F4F0895A5
:10041000990F0008550FAA0BE0E8FEEF1616170615
:10042000E807F907C0F012161306E407F50798F07D
:10043000621B730B840B950B39F40A2661F0232B96
:10044000242B252B21F408950A2609F4A140A69512
:080450008FEF811D811D08954D
:1004580057FD9058440F551F59F05F3F71F047956D
:10046800880F97FB991F61F09F3F79F08795089552
:10047800121613061406551FF2CF4695F1DF08C071
:10048800161617061806991FF1CF8695710561058E
:040498000894089527
:10049C00ECE7F0E09081907F90839081892B8083B2
:1004AC00EAE7F0E080818064808380917A0086FDA9
:0C04BC00FCCF80917800909179000895A9
:1004C800092E0394000C11F4882352F0BB0F40F45A
:1004D800BF2B11F460FF04C06F5F7F4F8F4F9F4F9A
:0204E800089575
:1004EA00E0E8F0E08081816A8083E1E8F0E08081E1
:0604FA0089608083089573
:10050000EC010E94D1020E94D002CE010E94D202D0
:06051000CE010E94CE02A4
:0E05160080EC80937C0080E880937A0008954A
:0E05240084B1866084B98AB184608AB9089572
:0E0532000E94D9016894B1110C94A1020895A1
:0E054000E894BB2766277727CB0197F908952B
:0E054E0000240A9416161706180609060895CA
:0E055C0000240A9412161306140605060895CC
:0C056A0097F99F6780E870E060E008955A
:0A0576000E94080208F481E00895D5
:0A0580000E94080208F48FEF0895AE
:08058A000E9432010C9464028E
:060592009FEF80EC0895CC
:040598000C940000BF
:04059C000E943E007B
:0205A0000895BC
:0205A2000895BA
:0205A4000895B8
:00000001FF
